{
  "contractName": "Validator",
  "abi": [
    {
      "constant": false,
      "inputs": [
        {
          "internalType": "address",
          "name": "_userId",
          "type": "address"
        },
        {
          "internalType": "uint256",
          "name": "_amount",
          "type": "uint256"
        }
      ],
      "name": "incrementBalance",
      "outputs": [],
      "payable": false,
      "stateMutability": "nonpayable",
      "type": "function"
    },
    {
      "constant": false,
      "inputs": [
        {
          "internalType": "uint256",
          "name": "_itemId",
          "type": "uint256"
        }
      ],
      "name": "markValid",
      "outputs": [],
      "payable": false,
      "stateMutability": "nonpayable",
      "type": "function"
    },
    {
      "constant": true,
      "inputs": [
        {
          "internalType": "address",
          "name": "_userId",
          "type": "address"
        }
      ],
      "name": "getHistory",
      "outputs": [
        {
          "internalType": "uint256[]",
          "name": "",
          "type": "uint256[]"
        },
        {
          "internalType": "bool[]",
          "name": "",
          "type": "bool[]"
        }
      ],
      "payable": false,
      "stateMutability": "view",
      "type": "function"
    },
    {
      "constant": true,
      "inputs": [
        {
          "internalType": "address",
          "name": "_userId",
          "type": "address"
        }
      ],
      "name": "getBalance",
      "outputs": [
        {
          "internalType": "uint256",
          "name": "",
          "type": "uint256"
        }
      ],
      "payable": false,
      "stateMutability": "view",
      "type": "function"
    },
    {
      "constant": false,
      "inputs": [
        {
          "internalType": "string",
          "name": "_qrHash",
          "type": "string"
        },
        {
          "internalType": "address",
          "name": "_creator",
          "type": "address"
        }
      ],
      "name": "createItem",
      "outputs": [],
      "payable": false,
      "stateMutability": "nonpayable",
      "type": "function"
    },
    {
      "constant": false,
      "inputs": [
        {
          "internalType": "string",
          "name": "_qrHash",
          "type": "string"
        }
      ],
      "name": "validateItem",
      "outputs": [],
      "payable": false,
      "stateMutability": "nonpayable",
      "type": "function"
    }
  ],
  "bytecode": "0x6080604052600560045534801561001557600080fd5b50610be1806100256000396000f3fe608060405234801561001057600080fd5b50600436106100625760003560e01c8063384bc46614610067578063645dc5e7146100b55780636820f7f6146100e3578063803968111461019e578063f8b2cb4f1461027f578063fb54453b146102d7575b600080fd5b6100b36004803603604081101561007d57600080fd5b81019080803573ffffffffffffffffffffffffffffffffffffffff169060200190929190803590602001909291905050506103b2565b005b6100e1600480360360208110156100cb57600080fd5b8101908080359060200190929190505050610402565b005b61019c600480360360208110156100f957600080fd5b810190808035906020019064010000000081111561011657600080fd5b82018360208201111561012857600080fd5b8035906020019184600183028401116401000000008311171561014a57600080fd5b91908080601f016020809104026020016040519081016040528093929190818152602001838380828437600081840152601f19601f820116905080830192505050505050509192919290505050610434565b005b6101e0600480360360208110156101b457600080fd5b81019080803573ffffffffffffffffffffffffffffffffffffffff169060200190929190505050610580565b604051808060200180602001838103835285818151815260200191508051906020019060200280838360005b8381101561022757808201518184015260208101905061020c565b50505050905001838103825284818151815260200191508051906020019060200280838360005b8381101561026957808201518184015260208101905061024e565b5050505090500194505050505060405180910390f35b6102c16004803603602081101561029557600080fd5b81019080803573ffffffffffffffffffffffffffffffffffffffff16906020019092919050505061081a565b6040518082815260200191505060405180910390f35b6103b0600480360360408110156102ed57600080fd5b810190808035906020019064010000000081111561030a57600080fd5b82018360208201111561031c57600080fd5b8035906020019184600183028401116401000000008311171561033e57600080fd5b91908080601f016020809104026020016040519081016040528093929190818152602001838380828437600081840152601f19601f820116905080830192505050505050509192919290803573ffffffffffffffffffffffffffffffffffffffff169060200190929190505050610862565b005b806000808473ffffffffffffffffffffffffffffffffffffffff1673ffffffffffffffffffffffffffffffffffffffff168152602001908152602001600020600082825401925050819055505050565b60016002600083815260200190815260200160002060010160146101000a81548160ff02191690831515021790555050565b6000816040516020018082805190602001908083835b6020831061046d578051825260208201915060208101905060208303925061044a565b6001836020036101000a0380198251168184511680821785525050505050509050019150506040516020818303038152906040528051906020012060001c90506104b5610b49565b60026000838152602001908152602001600020604051806060016040529081600082015481526020016001820160009054906101000a900473ffffffffffffffffffffffffffffffffffffffff1673ffffffffffffffffffffffffffffffffffffffff1673ffffffffffffffffffffffffffffffffffffffff1681526020016001820160149054906101000a900460ff16151515158152505090506000151581604001511515141561057b5761056a82610402565b61057a81602001516004546103b2565b5b505050565b6060806060600160008573ffffffffffffffffffffffffffffffffffffffff1673ffffffffffffffffffffffffffffffffffffffff168152602001908152602001600020546040519080825280602002602001820160405280156105f35781602001602082028038833980820191505090505b5090506060600160008673ffffffffffffffffffffffffffffffffffffffff1673ffffffffffffffffffffffffffffffffffffffff168152602001908152602001600020546040519080825280602002602001820160405280156106665781602001602082028038833980820191505090505b509050610671610b49565b600080905060008090505b60038054905081101561080a578773ffffffffffffffffffffffffffffffffffffffff16600382815481106106ad57fe5b906000526020600020906002020160010160009054906101000a900473ffffffffffffffffffffffffffffffffffffffff1673ffffffffffffffffffffffffffffffffffffffff1614156107fd57600260006003838154811061070c57fe5b9060005260206000209060020201600001548152602001908152602001600020604051806060016040529081600082015481526020016001820160009054906101000a900473ffffffffffffffffffffffffffffffffffffffff1673ffffffffffffffffffffffffffffffffffffffff1673ffffffffffffffffffffffffffffffffffffffff1681526020016001820160149054906101000a900460ff161515151581525050925082600001518583815181106107c557fe5b60200260200101818152505082604001518483815181106107e257fe5b60200260200101901515908115158152505081806001019250505b808060010191505061067c565b5083839550955050505050915091565b60008060008373ffffffffffffffffffffffffffffffffffffffff1673ffffffffffffffffffffffffffffffffffffffff168152602001908152602001600020549050919050565b6000826040516020018082805190602001908083835b6020831061089b5780518252602082019150602081019050602083039250610878565b6001836020036101000a0380198251168184511680821785525050505050509050019150506040516020818303038152906040528051906020012060001c9050600060026000838152602001908152602001600020600001541461094a576040517f08c379a000000000000000000000000000000000000000000000000000000000815260040180806020018281038252602a815260200180610b83602a913960400191505060405180910390fd5b60006001600360405180606001604052808581526020018673ffffffffffffffffffffffffffffffffffffffff16815260200160001515815250908060018154018082558091505090600182039060005260206000209060020201600090919290919091506000820151816000015560208201518160010160006101000a81548173ffffffffffffffffffffffffffffffffffffffff021916908373ffffffffffffffffffffffffffffffffffffffff16021790555060408201518160010160146101000a81548160ff0219169083151502179055505050039050600160008473ffffffffffffffffffffffffffffffffffffffff1673ffffffffffffffffffffffffffffffffffffffff1681526020019081526020016000206000815480929190600101919050555060038181548110610a8157fe5b906000526020600020906002020160026000848152602001908152602001600020600082015481600001556001820160009054906101000a900473ffffffffffffffffffffffffffffffffffffffff168160010160006101000a81548173ffffffffffffffffffffffffffffffffffffffff021916908373ffffffffffffffffffffffffffffffffffffffff1602179055506001820160149054906101000a900460ff168160010160146101000a81548160ff02191690831515021790555090505050505050565b604051806060016040528060008152602001600073ffffffffffffffffffffffffffffffffffffffff168152602001600015158152509056fe4974656d20776974682074686520676976656e20717220636f646520616c726561647920657869737473a265627a7a72315820a3cfeb64245c866c8452c301f0f51f9f1cceaee90006c727fb2783feac25bae064736f6c634300050b0032",
  "source": "pragma solidity >=0.5.11;\n\nimport \"./greencoin.sol\";\nimport \"./user.sol\";\n\ncontract Validator is GreenCoin, User {\n    uint reward = 5; // Represents the coins user will receive on successful validation\n\n    // GreenCoin GCInstance;\n    // User UInstance;\n\n    // constructor(address _gc, address _u) public {\n    //     GCInstance = GreenCoin(_gc);\n    //     UInstance = User(_u);\n    // }\n\n    function validateItem(string memory _qrHash) public {\n        // Generate same item id based on qrHash\n        uint _itemId = uint(keccak256(abi.encodePacked(_qrHash)));\n\n        // Retrieve item and mark valid\n        Item memory item = idToItem[_itemId];\n\n        if (item.isValidated == false) {\n            // Mark item as validated\n            markValid(_itemId);\n\n            // Reward user\n            incrementBalance(item.creator, reward);\n        }\n    }\n}",
  "sourcePath": "/home/mayukuse/Work/UTD/Green-Block/contracts/validator.sol",
  "compiler": {
    "name": "solc",
    "version": "0.5.11+commit.c082d0b4.Emscripten.clang"
  },
  "schemaVersion": "3.0.11",
  "updatedAt": "2020-01-26T23:05:19.812Z",
  "devdoc": {
    "methods": {}
  },
  "userdoc": {
    "methods": {}
  }
}